:100000000C942A000C9447000C9447000C94470071
:100010000C9447000C9447000C9447000C946C0817
:100020000C9447000C9447000C9447000C94470034
:100030000C9447000C9447000C9447000C94470024
:100040000C9447000C9447000C9447000C94470014
:100050000C94470011241FBECFE5D8E0DEBFCDBF12
:1000600011E0A0E6B0E0ECE4FCE102C005900D92E6
:10007000AC34B107D9F721E0ACE4B1E001C01D9286
:10008000A339B207E1F70E94DF080C94240E0C9408
:1000900000000F931F93CF93DF938C01EB0184E05B
:1000A00090E00E94190AFC0111830083D383C2836C
:1000B000DF91CF911F910F9108959BB381E0892724
:1000C0008BBB0895D898089520915101223009F0F2
:1000D00069C020918601309187012115310509F40D
:1000E00061C010928701109286018130910559F00C
:1000F0001CF40097E1F132C08230910531F1833078
:10010000910539F12BC024303105B1F1A0918B015B
:10011000B0918C01E0918801F091890114962D91A4
:100120003C911597808191812817390701F5129626
:100130002D913C9113978281938128173907B9F447
:1001400080914D01811129C012C02430310579F010
:1001500013C080914D01882351F01FC0823091055A
:1001600059F083309105C9F08130910551F50E9415
:10017000620081E090E0089580914C01853038F074
:100180000E948F0710924C0182E090E008958F5FEB
:1001900080934C0182E090E008950E945D0083E02E
:1001A00090E008958130910509F4B0CF1CF40097D8
:1001B000F1F2D4CF82309105F9F28330910549F202
:1001C000CDCF0895EF92FF920F931F93CF93DF93BC
:1001D000EC017B0182E190E00E94190A082F192F9F
:1001E000E114F104B9F48091500181112DC08B818B
:1001F0008F938A818F9386E690E09F938F931F93CE
:100200000F930E943A0B0F900F900F900F900F904A
:100210000F9032C0EA94EF28B9F480915001811117
:1002200013C089818F9388818F938AE790E09F9391
:100230008F931F930F930E943A0B0F900F900F9084
:100240000F900F900F9018C08B818F938A818F939E
:1002500089818F9388818F938CE890E09F938F930F
:100260001F930F930E943A0B8DB79EB708960FB657
:10027000F8949EBF0FBE8DBF802F912FDF91CF913D
:100280001F910F91FF90EF9008950F931F93CF93BD
:10029000DF93CDB7DEB762970FB6F894DEBF0FBE1F
:1002A000CDBF8C0160E080E00E94330860918E0138
:1002B00070E0C8010E94E2008C010E94470860E0E3
:1002C00081E00E943308C8010E94B10A81E1E1EA9D
:1002D000F0E0DE01119601900D928A95E1F7CE01D2
:1002E00001960E94470862960FB6F894DEBF0FBED3
:1002F000CDBFDF91CF911F910F9108959C0183E0B5
:1003000083BF83E808C082BF98B7916098BFA89563
:1003100008B600FEFDCF21503109A8F713BE08959D
:100320006F927F928F929F92AF92BF92CF92EF92F5
:10033000FF920F931F93CF93DF934C015B01EA0170
:1003400039018DE090E00E94190AFC0197828682B3
:10035000B186A086D387C2877582648213830283A5
:10036000F182E082C486DF91CF911F910F91FF90BF
:10037000EF90CF90BF90AF909F908F907F906F90B5
:100380000895FC0122853385C90183709927892B43
:1003900091F4C90164E670E00E94F109892B69F4C7
:1003A000C90160E971E00E94F1099C0181E0232B01
:1003B00029F080E0089580E0089581E00895FC012F
:1003C00080859185029741F4868197814D9721F42C
:1003D0008CE190E09783868382859385019693874D
:1003E00082870895CF93DF93EC01888599858C30BF
:1003F000910579F481E090E0998788878A859B85CB
:1004000001969B878A878E819F814E9709F047C00E
:1004100007C02E813F812E31310589F40197C9F53E
:10042000CE010E94C101882329F08DE190E09F83D5
:100430008E832FC08CE190E09F838E832AC08E81B3
:100440009F814F9731F5888599858130910579F4A1
:10045000CE010E94C101882329F08DE190E09F83A5
:100460008E8317C08CE190E09F838E8312C083300F
:10047000910559F08530910541F09C0127503109D3
:100480002230310510F00A9721F48EE190E09F832D
:100490008E838885998501969987888705C08E8186
:1004A0009F814F97A9F2F5CFDF91CF910895CF9318
:1004B000DF93EC018E819F818F31910541F4CE0154
:1004C0000E94F20181E090E09F838E8345C08E31CF
:1004D0009105A9F4888599858D7F8430910511F067
:1004E000099741F4CE010E94F20181E090E09F83E0
:1004F0008E8332C08FE190E09F838E832DC08C313C
:100500009105B9F4288539852230310511F5CE01E0
:100510000E94C101811108C0CE010E94F20181E058
:1005200090E09F838E8318C08DE190E09F838E833F
:1005300013C08D31910569F4288539852230310544
:1005400041F4CE010E94F20181E090E09F838E830E
:1005500003C001969F838E83DF91CF910895CF933F
:10056000DF93FC01248135812731310531F4EC0121
:100570000E9457021D821C8205C02F5F3F4FFC0165
:1005800035832483DF91CF910895CF93DF93FC01CE
:10059000228133812B33310531F4EC010E94AF020B
:1005A0001B821A8205C02F5F3F4FFC0133832283D9
:1005B000DF91CF910895CF93DF93FC0120813181AA
:1005C0002B33310531F4EC010E94C50219821882E7
:1005D00005C02F5F3F4FFC0131832083DF91CF9116
:1005E0000895FC0180859185029741F48681978169
:1005F0004D9721F48CE190E09783868382859385E3
:100600000197938782870895CF93DF93EC01288524
:1006100039852130310569F40E94F1028CE090E0C7
:10062000998788878E819F818E31910509F048C016
:100630003EC08E819F818E31910591F4233031052A
:10064000B1F5CE010E94C101882329F08DE190E02F
:100650009F838E832CC08CE190E09F838E8327C084
:100660004F9729F5888599858330910579F4CE01D6
:100670000E94C101882329F08DE190E09F838E8341
:1006800016C08CE190E09F838E8311C09C012D7F6A
:100690002530310541F09C012950310922303105C6
:1006A00010F00C9721F48EE190E09F838E83888573
:1006B000998501979987888706C088859985E6CFAF
:1006C0004F97A9F7FACFDF91CF910895CF93DF939A
:1006D000FC01268137812130310599F5EC018085B7
:1006E00091859C01215031092230310570F09C0127
:1006F0002D7F2430310549F09C01285031092230EA
:10070000310518F08B30910541F48FE190E09F8323
:100710008E83CE010E94040319C00397B9F4CF0160
:100720000E94C101882329F08DE190E09F838E8390
:1007300004C08CE190E09F838E83CE010E9404036D
:1007400005C021503109FC0137832683DF91CF9109
:100750000895CF93DF93FC01248135812115310564
:1007600041F4EC010E94660387E190E09D838C8355
:1007700005C021503109FC0135832483DF91CF91DD
:100780000895CF93DF93FC01228133812115310538
:1007900041F4EC010E94A9038BE390E09B838A83E0
:1007A00005C021503109FC0133832283DF91CF91B1
:1007B0000895CF93DF93FC0120813181211531050C
:1007C00041F4EC010E94C1038BE390E0998388839C
:1007D00005C021503109FC0131832083DF91CF9185
:1007E00008950E94DB020895FC012485211103C0B5
:1007F00021E024870895FC0114860895EF92FF926A
:100800000F931F93CF93DF93EC018B0181E190E075
:100810000E94190AE82EF92E8C819D812C852111C8
:1008200014C08C3091053CF4009791F48CE090E07A
:1008300022EB30E012C08C30910569F06CE070E082
:100840000E94F10925EB30E008C029E830E005C03E
:1008500022EB30E002C025EB30E001151105E9F490
:100860003F932F9329812F9328812F932B812F93AF
:100870002A812F939F938F9388EB90E09F938F9380
:10088000FF92EF920E943A0B8DB79EB70C960FB66F
:10089000F8949EBF0FBE8DBFA0C001301105F9F4C2
:1008A0004091500141117DC03F932F9389818F93D7
:1008B00088818F938B818F938A818F9389EC90E0CD
:1008C0009F938F93FF92EF920E943A0B8DB79EB742
:1008D0000A960FB6F8949EBF0FBE8DBF7EC0023041
:1008E0001105E9F44091500141115BC03F932F93F2
:1008F00029812F9328812F939F938F9388ED90E0E8
:100900009F938F93FF92EF920E943A0B8DB79EB701
:100910000A960FB6F8949EBF0FBE8DBF5EC003301F
:100920001105E9F44091500141113BC03F932F93D1
:100930002B812F932A812F939F938F9387EE90E0A3
:100940009F938F93FF92EF920E943A0B8DB79EB7C1
:100950000A960FB6F8949EBF0FBE8DBF3EC00430FE
:100960001105F9F44091500141111BC029812F93C9
:1009700028812F932B812F932A812F939F938F93DD
:1009800086EF90E09F938F93FF92EF920E943A0B35
:100990008DB79EB70A960FB6F8949EBF0FBE8DBF57
:1009A0001CC03F932F9329812F9328812F932B8154
:1009B0002F932A812F939F938F9388EB90E09F939F
:1009C0008F93FF92EF920E943A0B8DB79EB70C96D1
:1009D0000FB6F8949EBF0FBE8DBF8E2D9F2DDF9159
:1009E000CF911F910F91FF90EF900895EF92FF929A
:1009F0000F931F93CF93DF93EC018B0181E190E084
:100A00000E94190AE82EF92E0115110509F58A85AB
:100A10009B8564E670E00E94F1099F938F938F811C
:100A20008F938E818F9389858F9388858F9387E0AD
:100A300091E09F938F93FF92EF920E943A0B8DB7B4
:100A40009EB70A960FB6F8949EBF0FBE8DBF88C0A2
:100A50000630110509F580915001811161C08A8528
:100A60009B8564E670E00E94F1099F938F938F81CC
:100A70008F938E818F9386E191E09F938F93FF9266
:100A8000EF920E943A0B8DB79EB708960FB6F89476
:100A90009EBF0FBE8DBF64C00530110509F5809162
:100AA000500181113DC08A859B8564E670E00E94FB
:100AB000F1099F938F9389858F9388858F9383E224
:100AC00091E09F938F93FF92EF920E943A0B8DB724
:100AD0009EB708960FB6F8949EBF0FBE8DBF40C05C
:100AE00007301105E9F480915001811119C08F81FF
:100AF0008F938E818F9389858F9388858F9380E3E1
:100B000091E09F938F93FF92EF920E943A0B8DB7E3
:100B10009EB708960FB6F8949EBF0FBE8DBF20C03B
:100B20008A859B8564E670E00E94F1099F938F930C
:100B30008F818F938E818F9389858F9388858F93F3
:100B400087E091E09F938F93FF92EF920E943A0B80
:100B50008DB79EB70A960FB6F8949EBF0FBE8DBF95
:100B60008E2D9F2DDF91CF911F910F91FF90EF90D0
:100B70000895CF92DF92EF92FF920F931F93CF933E
:100B8000DF93CDB7DEB762970FB6F894DEBF0FBE26
:100B9000CDBF8C017B0160E080E00E943308B7018B
:100BA000C8010E94FE036C010E94470860E081E0DA
:100BB0000E943308C6010E94B10AB701C8010E9411
:100BC000F604082F192F80914D01882319F08DE329
:100BD00091E002C087E890E09F938F931F930F935B
:100BE00082E491E09F938F93CE0101967C019F93C5
:100BF0008F930E943A0BC7010E944708802F912FC4
:100C00000E94B10A0FB6F894DEBF0FBECDBF629648
:100C10000FB6F894DEBF0FBECDBFDF91CF911F910D
:100C20000F91FF90EF90DF90CF90089580918A010F
:100C3000863021F485E080938A010895853021F47F
:100C400087E080938A010895873021F481E08093C2
:100C50008A010895813021F482E080938A01089509
:100C6000823021F483E080938A010895833021F457
:100C700086E080938A01089581E080938A01089537
:100C800080918A01863021F483E080938A0108955F
:100C9000853021F486E080938A010895873021F41D
:100CA00085E080938A010895813021F487E0809364
:100CB0008A010895823021F481E080938A010895A9
:100CC000833021F482E080938A01089581E080934B
:100CD0008A0108958630910521F4CB010E94F2012A
:100CE00008958530910521F4CB010E9457020895A3
:100CF0008730910521F4CB010E94DF0108958130F6
:100D0000910521F4CB010E94AF0208958230910534
:100D100021F4CB010E94C50208958330910521F48E
:100D2000CB010E94DB020895049719F4CB010E94C5
:100D3000F40308958630910521F4CB010E94040349
:100D400008958530910521F4CB010E946603089532
:100D50008730910521F4CB010E94F1020895813082
:100D6000910521F4CB010E94A903089582309105D9
:100D700021F4CB010E94C10308958330910521F431
:100D8000CB010E94D9030895049719F4CB010E9466
:100D9000F4030895CF93DF9320915101213009F09E
:100DA000B0C0C0918601D0918701209709F4A9C0F5
:100DB00010928701109286018130910549F08230AE
:100DC000910599F0892B09F067C018C0C0E0D0E008
:100DD000C630D10599F481E080938A010E948F0783
:100DE00082E090E061C0C0E0D0E0C630D10509F0FB
:100DF00072C010928A0102C0C0E0D0E080914E0122
:100E000090914F01181619065CF480918B01909116
:100E10008C010E94F10310924F0110924E0105C007
:100E2000019690934F0180934E01CD30D105B9F5D5
:100E300080918B0190918C010E94F40381E090E0FD
:100E40006BC060918B0170918C0180918A0190E060
:100E50000E946A0682E090E05FC060918B01709111
:100E60008C0180918A0190E00E949A0682E090E0D5
:100E700053C00E94400682E090E04EC00E941606D9
:100E800082E090E049C080918B0190918C010E949A
:100E9000F40382E090E040C080E090E005C081E093
:100EA00090E002C082E090E02F97B1F520914D01D3
:100EB00030E02F5F3F4F21703078332334F42150DE
:100EC00031092E6F3F6F2F5F3F4F20934D0124C09C
:100ED00080E090E021C00E948F07C730D10571F2F9
:100EE00044F4C230D10509F4ACCFC530D10509F2C4
:100EF000D9CFCA30D10509F4B0CFCD30D10519F220
:100F0000D1CF8130910509F461CF8230910509F488
:100F10006ACF892BE9F670CFDF91CF910895809148
:100F20005001811104C081E0809350010895109216
:100F30005001089594B36C5F7F4F21E030E002C010
:100F4000220F331F6A95E2F7922B94BB95B320953D
:100F5000922395BB93B334B3232324BB292F30E0D2
:100F600002C0359527958A95E2F781E090E020FF51
:100F700002C080E090E008950F931F93CF93DF931A
:100F800000E010E018C0BE01C8010E949A07009757
:100F900049F0000F111F000F111FC00FD11FCE010C
:100FA00001960CC02196C430D10569F70F5F1F4F21
:100FB0000430110519F0C0E0D0E0E5CFDF91CF910A
:100FC0001F910F91089514BA8FE085BB0895662391
:100FD00011F0C09A01C0C098C19882BB8FEF81BB4D
:100FE000C29A000000000000C2980895C098C19AFB
:100FF00011BA90B3C29A00000000000011BA90B379
:10100000C29899239CF30E94E7070895B89AB99A69
:10101000BA9A80E190E00E947E0160E080E30E9445
:10102000E70785E090E00E947E0160E080E30E9497
:10103000E70781E090E00E947E0160E08CE30E947F
:10104000F60760E08CE00E94F60760E086E00E9410
:10105000F60760E081E00E94F607089560E081E015
:101060000E94F6070895CF93C62F98E2899FC00D7E
:10107000112460E082E00E94F607CC2331F060E0AA
:1010800084E10E94F607C150D1F7CF910895CF9324
:10109000DF93EC012196FC018081882331F061E02F
:1010A0000E94F60789918111FACFDF91CF910895BF
:1010B0000E94BC0780938D01882359F020918601FE
:1010C00030918701232B29F49927909387018093EE
:1010D000860180E090E008951F920F920FB60F9264
:1010E00011242F933F934F935F936F937F938F932D
:1010F0009F93AF93BF93EF93FF9344E050E064E678
:1011000070E082E591E00E944309FF91EF91BF9169
:10111000AF919F918F917F916F915F914F913F918F
:101120002F910F900FBE0F901F90189528E538E073
:1011300044E650E060E070E080E090E00E941A0930
:10114000FC019DE0A2E5B1E001900D929A95E1F7D6
:101150002AEC36E044EF51E060E070E080E090E09F
:101160000E941A09FC019DE0ACE6B1E001900D92ED
:101170009A95E1F724E630E044E650E060E070E064
:1011800080E090E00E941A09FC019DE0A9E7B1E02F
:1011900001900D929A95E1F722EB39E044EF51E08E
:1011A00060E070E080E090E00E941A09FC019DE0A0
:1011B000AFE5B1E001900D929A95E1F70895109294
:1011C0008701109286010E94E3070E9406080E9490
:1011D0002E08C12CD12CE12CF12C0BE310E027E1DF
:1011E00030E044EE57E062E070E08BE190E00E9476
:1011F000900190938C0180938B0184E690E00E9493
:101200009F090E94AB09D09A0E94960860E070E0A6
:1012100080E090E00E9449009093890180938801CA
:1012200081E08093510110928A0185B7806885BF63
:101230008895FECFCF92DF92EF92FF920F931F938C
:10124000CF93DF938C016A017B01E9018DE090E08F
:101250000E94190AFC0111830083C282D382E482B6
:10126000F582C682D782E086F186D387C28781E085
:101270008487CF01DF91CF911F910F91FF90EF9065
:10128000DF90CF9008954F925F926F927F928F92EE
:101290009F92AF92BF92CF92DF92EF92FF920F9305
:1012A0001F93CF93DF9314161506C4F55A012B0133
:1012B0004C0110E00DE0052C000C66087708E401F5
:1012C000019FC00DD11D11244E815F8168857985F4
:1012D0008A819B81AC81BD81481759076A077B07CA
:1012E00058F0EA85FB8588819981099599838883DF
:1012F0001E821F8218861986CE80DF80E884F984DA
:10130000C40CD51CE61CF71CCE82DF82E886F98669
:101310001F5F812F90E08A159B058CF2DF91CF91A2
:101320001F910F91FF90EF90DF90CF90BF90AF9003
:101330009F908F907F906F905F904F9008952DE7D2
:10134000AC01249FC001259F900D11249BBD8ABD37
:1013500080E189BF08951FBC8BE08EBD1DBC1CBC05
:10136000789408952091860130918701813091050C
:1013700049F08230910569F0892B91F480915101F7
:1013800090E010C024303105A1F482E08093510137
:101390001CC024303105C9F481E08093510109C09B
:1013A00080E090E08130910521F08230910569F074
:1013B000089560918A0170E080918B0190918C0179
:1013C0000E94B90581E090E0089560918E0170E07F
:1013D00080918801909189010E94450182E090E00E
:1013E000089597FB072E16F4009407D077FD09D0D7
:1013F0000E94050A07FC05D03EF4909581959F4F09
:101400000895709561957F4F0895AA1BBB1B51E10C
:1014100007C0AA1FBB1FA617B70710F0A61BB70B64
:10142000881F991F5A95A9F780959095BC01CD0109
:1014300008950F931F93CF93DF938230910510F49B
:1014400082E090E0E0919101F091920120E030E0A3
:10145000A0E0B0E0309719F1408151810281138101
:1014600048175907C8F08417950769F4109731F0A9
:1014700012960C93129713961C9327C00093910118
:101480001093920122C02115310519F0421753071C
:1014900018F49A01BD01EF01DF01F801DBCF21153E
:1014A0003105F9F0281B390B2430310580F48A818D
:1014B0009B816115710521F0FB019383828304C038
:1014C0009093920180939101FE01329644C0FE01F7
:1014D000E20FF31F819391932250310939832883BE
:1014E0003AC020918F0130919001232B41F420913B
:1014F0006200309163003093900120938F0120911E
:101500006000309161002115310541F42DB73EB7DF
:101510004091640050916500241B350BE0918F01D0
:10152000F0919001E217F307A0F42E1B3F0B281750
:10153000390778F0AC014E5F5F4F2417350748F04C
:101540004E0F5F1F5093900140938F0181939193B1
:1015500002C0E0E0F0E0CF01DF91CF911F910F9149
:101560000895CF93DF93009709F481C0FC0132976F
:1015700013821282A0919101B0919201109781F48F
:1015800020813181820F931F20918F013091900132
:101590002817390751F5F0939001E0938F0167C048
:1015A000ED0120E030E0CE17DF0740F44A815B8197
:1015B0009E0141155105F1F0EA01F5CFD383C283B5
:1015C00040815181840F951FC817D90759F488812C
:1015D0009981840F951F0296918380838A819B81D4
:1015E000938382832115310529F4F0939201E093CE
:1015F00091013DC0E901FB83EA8349915991C40FF0
:10160000D51FEC17FD0761F480819181840F951F30
:101610000296E90199838883828193819B838A83DF
:10162000E0E0F0E012968D919C911397009719F0ED
:10163000FD01DC01F7CF8D919C9111979D012E5FEB
:101640003F4F820F931F20918F01309190012817F7
:10165000390769F4309729F41092920110929101A0
:1016600002C013821282B0939001A0938F01DF9188
:10167000CF910895AEE0B0E0E0E4FBE00C94FB0D08
:101680000D891E8986E08C831A8309838FEF9FE77B
:101690009E838D83AE01475E5F4F6F89788DCE014B
:1016A00001960E945C0BEF81F885E00FF11F10821C
:1016B0002E96E4E00C94170EABE0B0E0E2E6FBE01F
:1016C0000C94ED0D6C017B018A01FC0117821682DE
:1016D000838181FFCCC1CE0101963C01F60193814B
:1016E000F70193FD859193FF81917F01882309F490
:1016F000BAC1853239F493FD859193FF81917F01C1
:10170000853229F4B60190E00E94530DE7CF912C69
:10171000212C312CFFE1F315D8F08B3279F038F41D
:10172000803279F08332A1F4232D20611DC08D32E7
:1017300061F0803369F4232D216016C0832D82600F
:10174000382EE32DE4603E2E2AC0F32DF8601DC034
:1017500037FC2DC020ED280F2A3040F08E32B9F42E
:1017600036FC81C1232D2064322E19C036FE06C0FE
:101770008AE0989E200D1124922E11C0EAE02E9E40
:10178000200D1124222EF32DF0623F2E08C08C363E
:1017900021F4832D8068382E02C0883641F4F70189
:1017A00093FD859193FF81917F018111B3CF982F94
:1017B0009F7D9554933028F40C5F1F4F9FE39983CE
:1017C0000DC0833631F0833771F0833509F059C08D
:1017D00021C0F801808189830E5F1F4F8824839484
:1017E000912C530113C02801F2E04F0E511CF80157
:1017F000A080B18036FE03C0692D70E002C06FEF9B
:101800007FEFC5010E94480D4C018201F32DFF7747
:101810003F2E16C0280122E0420E511CF801A08084
:10182000B18036FE03C0692D70E002C06FEF7FEF1C
:10183000C5010E943D0D4C01F32DF0683F2E820141
:1018400033FC1BC0822D90E088169906B0F4B601D7
:1018500080E290E00E94530D2A94F4CFF50137FC0A
:10186000859137FE81915F01B60190E00E94530D92
:1018700021102A9421E0821A91088114910471F7B1
:10188000E8C0843611F0893641F5F80137FE07C00B
:1018900060817181828193810C5F1F4F08C06081DC
:1018A0007181072E000C880B990B0E5F1F4FF32DD3
:1018B000FF763F2E97FF09C09095809570956195B2
:1018C0007F4F8F4F9F4FF0683F2E2AE030E0A301FB
:1018D0000E948F0D882E861845C0853731F4232D40
:1018E0002F7EB22E2AE030E025C0932D997FB92EAD
:1018F0008F36C1F018F4883579F0B5C0803719F00B
:10190000883721F0B0C0E92FE061BE2EB4FE0DC0D3
:10191000FB2DF460BF2E09C034FE0AC0292F2660BB
:10192000B22E06C028E030E005C020E130E002C061
:1019300020E132E0F801B7FE07C060817181828149
:1019400093810C5F1F4F06C06081718180E090E041
:101950000E5F1F4FA3010E948F0D882E8618FB2D4E
:10196000FF773F2E36FE0DC0232D2E7FA22E891429
:1019700058F434FE0BC032FC09C0832D8E7EA82E95
:1019800005C0B82CA32C03C0B82C01C0B92CA4FEF0
:101990000FC0FE01E80DF11D8081803321F49A2DE6
:1019A000997EA92E09C0A2FE06C0B394B39404C0C8
:1019B0008A2D867809F0B394A3FC11C0A0FE06C05E
:1019C000B21488F4280C922C9B180EC0B21460F448
:1019D000B60180E290E00E94530DB394F7CFB214A9
:1019E00018F42B1802C0982C212CA4FE10C0B601AC
:1019F00080E390E00E94530DA2FE17C0A1FC03C03B
:101A000088E790E002C088E590E0B6010CC08A2D1E
:101A1000867859F0A1FE02C08BE201C080E2A7FCEB
:101A20008DE2B60190E00E94530D891438F4B6019E
:101A300080E390E00E94530D9A94F7CF8A94F301CB
:101A4000E80DF11D8081B60190E00E94530D8110D8
:101A5000F5CF222009F442CEB60180E290E00E9448
:101A6000530D2A94F6CFF6018681978102C08FEF3D
:101A70009FEF2B96E2E10C94090EFC01059061505A
:101A800070400110D8F7809590958E0F9F1F089594
:101A9000FC016150704001900110D8F7809590953D
:101AA0008E0F9F1F08950F931F93CF93DF93FB011A
:101AB000238121FD03C08FEF9FEF2CC022FF16C0B2
:101AC00046815781248135814217530744F4A08110
:101AD000B1819D012F5F3F4F318320838C932681FD
:101AE00037812F5F3F4F3783268314C08B01EC0172
:101AF000FB010084F185E02D0995892BE1F6D801E1
:101B000016968D919C911797019617969C938E939C
:101B10001697CE01DF91CF911F910F910895FA0191
:101B2000AA27283051F1203181F1E8946F936E7F1C
:101B30006E5F7F4F8F4F9F4FAF4FB1E03ED0B4E00D
:101B40003CD0670F781F891F9A1FA11D680F791F4E
:101B50008A1F911DA11D6A0F711D811D911DA11D5F
:101B600020D009F468943F912AE0269F112430196F
:101B7000305D3193DEF6CF010895462F4770405D0A
:101B80004193B3E00FD0C9F7F6CF462F4F70405DB9
:101B90004A3318F0495D31FD4052419302D0A9F714
:101BA000EACFB4E0A6959795879577956795BA950E
:101BB000C9F700976105710508959B01AC010A2ED4
:101BC00006945795479537952795BA95C9F7620FAB
:101BD000731F841F951FA01D08952F923F924F924F
:101BE0005F926F927F928F929F92AF92BF92CF92AD
:101BF000DF92EF92FF920F931F93CF93DF93CDB7B6
:101C0000DEB7CA1BDB0B0FB6F894DEBF0FBECDBF2D
:101C100009942A88398848885F846E847D848C84FE
:101C20009B84AA84B984C884DF80EE80FD800C8107
:101C30001B81AA81B981CE0FD11D0FB6F894DEBFEA
:0C1C40000FBECDBFED010895F894FFCF5A
:101C4C0000009301200020203A253032642020200F
:101C5C0020202020202020202000253032643A2013
:101C6C00202020202020202020202000253032641D
:101C7C003A253032642020202020202020202020D3
:101C8C00004544495420414C41524D2020202020F5
:101C9C002000616D00706D00253032643A253032C1
:101CAC00643A2530326425730020203A25303264A2
:101CBC003A25303264257300253032643A20203ABC
:101CCC0025303264257300253032643A2530326475
:101CDC003A2020257300253032643A253032643A9C
:101CEC0025303264202000253032642F25303264B8
:101CFC002F253032640020202F253032642F2530E0
:101D0C00326400253032642F20202F2530326400BD
:101D1C00253032642F253032642F202000616C7204
:0C1D2C006D00257320202020257300008E
:00000001FF
